:020000040800F2
:1000000068060020290200080F05000833030008D5
:100010000D0500082F030008F1050008000000008E
:1000200000000000000000000000000013050008B0
:100030003103000800000000110500081505000844
:10004000430200084302000843020008430200087C
:10005000430200084302000843020008430200086C
:10006000430200084302000843020008430200085C
:10007000430200084302000843020008430200084C
:10008000430200084302000843020008430200083C
:10009000430200084302000843020008430200082C
:1000A000430200084302000843020008430200081C
:1000B000430200084302000843020008430200080C
:1000C00043020008430200084302000843020008FC
:1000D00043020008430200084302000843020008EC
:1000E00043020008430200084302000843020008DC
:1000F00043020008430200084302000843020008CC
:1001000043020008430200084302000843020008BB
:1001100043020008430200084302000843020008AB
:10012000430200084302000843020008430200089B
:10013000430200084302000843020008430200088B
:10014000430200084302000843020008430200087B
:10015000430200084302000843020008430200086B
:10016000430200084302000843020008430200085B
:100170004302000843020008430200080000000098
:10018000430200084302000800F002F800F03CF8C7
:100190000AA090E8000C82448344AAF10107DA45E2
:1001A00001D100F031F8AFF2090EBAE80F0013F0F8
:1001B000010F18BFFB1A43F0010318475405000054
:1001C00074050000103A24BF78C878C1FAD85207E5
:1001D00024BF30C830C144BF04680C6070470000C1
:1001E0000023002400250026103A28BF78C1FBD840
:1001F000520728BF30C148BF0B6070471FB500F0E1
:1002000081FA1FBD10B510BD00F058F81146FFF778
:10021000F5FF00F0EFF900F076F803B4FFF7F2FF16
:1002200003BC00F07DF800000948804709480047FA
:10023000FEE7FEE7FEE7FEE7FEE7FEE7FEE7FEE796
:10024000FEE7FEE704480549054A064B70470000F3
:10025000E105000889010008680000206806002008
:1002600068020020680200204FF0000200B513462B
:1002700094469646203922BFA0E80C50A0E80C50C6
:10028000B1F12001BFF4F7AF090728BFA0E80C5077
:1002900048BF0CC05DF804EB890028BF40F8042B70
:1002A00008BF704748BF20F8022B11F0804F18BFDD
:1002B00000F8012B7047704770477047754600F093
:1002C0002BF8AE4605006946534620F007008546E8
:1002D00018B020B5FFF7B6FFBDE820404FF000068C
:1002E0004FF000074FF000084FF0000B21F007011E
:1002F000AC46ACE8C009ACE8C009ACE8C009ACE861
:10030000C0098D46704710B50446AFF30080204603
:10031000BDE81040FFF781BF00487047040000208F
:1003200001491820ABBEFEE7260002007047FEE739
:100330007047FEE7044908B50A6802430A60096885
:100340000140009108BD0000303802402DE9F00363
:100350000A6892FAA2F3B3FA83F3DA4073D0012663
:100360000F2503240A6806FA03FC02EA0C02002A9D
:100370006AD0D1F804C0BCF1010F02D0BCF1020F69
:1003800022D1D1F808C0876892FAA2F8B8FA88F8A2
:100390004FEA480804FA08F827EA080792FAA2F890
:1003A000B8FA88F84FEA48080CFA08FC47EA0C0C3F
:1003B000C0F808C0D1F80CC0476802FB0CFC97439A
:1003C00047EA0C0CC0F804C0D1F810C0C76892FA14
:1003D000A2F8B8FA88F84FEA480804FA08F827EAB9
:1003E000080792FAA2F8B8FA88F84FEA48080CFA17
:1003F00008FC47EA0C0CC0F80CC0D1F804C0BCF1F2
:10040000020F3DD192FAA2FCBCFA8CFCBCF1080FA1
:100410001BD2D1F814C0076A92FAA2F8B8FA88F889
:100420004FEA880805FA08F827EA080792FAA2F8BE
:10043000B8FA88F84FEA88080CFA08FC47EA0C0C6E
:10044000C0F820C01CE036E030E04F69D0F82480CE
:100450004FEA122C9CFAACF9B9FA89F99CFAACFC77
:100460004FEA8909BCFA8CFC05FA09F94FEA8C0CB1
:1004700028EA090807FA0CFC48EA0C0CC0F824C06A
:10048000D1F804C0076892FAA2F8B8FA88F84FEADF
:10049000480804FA08F892FAA2F2B2FA82F252007C
:1004A00027EA08070CFA02F23A4302605B1C0A686A
:1004B000DA407FF457AFBDE8F003002070474FF4F7
:1004C0007A71B0FBF1F0411E4FF0E0204161002154
:1004D0008161052101617047014908607047000092
:1004E0000000002081B04FF0E0210A690092B0F1D5
:1004F000FF3F00D0401C002806D00A6912F4803F5C
:1005000000D0401E0028F8D101B07047FEE7FEE79A
:1005100070477047704700002B4810B5016821F004
:10052000070141F005010160016801F0070105299B
:10053000FAD12648016841F48041016024480168ED
:1005400041F4803101600168C1F340410029FAD0D3
:100550001F49204A091D0B681F4C23401A430A609B
:100560000A6822F440320A60016841F0807101603B
:100570000168C1F340610029FAD0154808300168CC
:1005800021F0F0010160016821F4E05141F4A05133
:100590000160016821F4604141F40041016001689B
:1005A00021F0030141F002010160016801F00C013A
:1005B0000829FAD1094C2046FFF781FF2046BDE803
:1005C0001040FFF789BF0000003C0240007000406F
:1005D00000380240042A40000080BFFF007A030A6E
:1005E0000248016841F470010160704788ED00E045
:1005F000FEE700003D4886B0016841F4804101609B
:1006000000684FF0805900F4804000903748001F88
:10061000016841F0805101600068354900F0805068
:10062000009008684FF6FF021040324A40F44070D4
:10063000104308600868C0F30220C0F107010429D4
:1006400000D90421021D072A01D2002000E0C01EAB
:10065000012505FA01F4641E274984402001002683
:1006600081F8140DFFF758FF18216846FFF7FCFDCD
:100670008020FFF75FFE0120FFF75CFE0820FFF7F8
:1006800059FE1E4C4FF070404FF47048A061CDE908
:1006900000561B4F694638460496FFF757FECDF8C3
:1006A0000080CDE901560396694620460496FFF77F
:1006B0004DFE396901208843FBD14FF48050A06181
:1006C000C820FFF70FFFC4F81890C820FFF70AFFF3
:1006D0004FF40050A061C820FFF704FF4FF0005016
:1006E000A061C820FFF7FEFEE3E7000044380240A7
:1006F0000CED00E00000FA050FE000E0000C024005
:10070000000002404FF04070E1EE100A7047000018
:10071000300700080000002004000000C4010008A9
:10072000340700080400002064060000E00100080F
:040730000024F400AD
:040000050800018965
:00000001FF
